{
  "transactions": [
    {
      "hash": "0x1cfa1b2024687f2bd7e4fcee570afee027a814a250eb6badb29f4a3e19e7ad6c",
      "transactionType": "CALL",
      "contractName": null,
      "contractAddress": "0x84a4390Fbb115262458d1ee979e0Ee0d3ced9D64",
      "function": "approve(address,uint256):(bool)",
      "arguments": [
        "0x84a4390Fbb115262458d1ee979e0Ee0d3ced9D64",
        "500"
      ],
      "transaction": {
        "type": "0x02",
        "from": "0xfa9e6f9049ff9874fa6c1ea72c9e96285f2aee3a",
        "to": "0x84a4390fbb115262458d1ee979e0ee0d3ced9d64",
        "gas": "0x1ce25",
        "value": "0x0",
        "data": "0x095ea7b300000000000000000000000084a4390fbb115262458d1ee979e0ee0d3ced9d6400000000000000000000000000000000000000000000000000000000000001f4",
        "nonce": "0xb8",
        "accessList": []
      },
      "additionalContracts": [],
      "isFixedGasLimit": false
    },
    {
      "hash": "0x81ee5eb4beed2b34d7865e236f5ca4f3e46f30b9a8f21cdb1c210da14a413ef8",
      "transactionType": "CREATE",
      "contractName": "ZombieToken",
      "contractAddress": "0x831a9Ffd785503c87579169E569C4eB68bDa67E9",
      "function": null,
      "arguments": [
        "400"
      ],
      "transaction": {
        "type": "0x02",
        "from": "0xfa9e6f9049ff9874fa6c1ea72c9e96285f2aee3a",
        "gas": "0xafaf3",
        "value": "0x0",
        "data": "0x60806040523480156200001157600080fd5b5060405162000b0838038062000b08833981016040819052620000349162000225565b6040518060400160405280600b81526020016a2d37b6b134b2aa37b5b2b760a91b815250604051806040016040528060038152602001622d2a2760e91b8152508160039081620000859190620002e4565b506004620000948282620002e4565b505050620000a93382620000b060201b60201c565b50620003d8565b6001600160a01b038216620000e05760405163ec442f0560e01b8152600060048201526024015b60405180910390fd5b620000ee60008383620000f2565b5050565b6001600160a01b03831662000121578060026000828254620001159190620003b0565b90915550620001959050565b6001600160a01b03831660009081526020819052604090205481811015620001765760405163391434e360e21b81526001600160a01b03851660048201526024810182905260448101839052606401620000d7565b6001600160a01b03841660009081526020819052604090209082900390555b6001600160a01b038216620001b357600280548290039055620001d2565b6001600160a01b03821660009081526020819052604090208054820190555b816001600160a01b0316836001600160a01b03167fddf252ad1be2c89b69c2b068fc378daa952ba7f163c4a11628f55a4df523b3ef836040516200021891815260200190565b60405180910390a3505050565b6000602082840312156200023857600080fd5b5051919050565b634e487b7160e01b600052604160045260246000fd5b600181811c908216806200026a57607f821691505b6020821081036200028b57634e487b7160e01b600052602260045260246000fd5b50919050565b601f821115620002df57600081815260208120601f850160051c81016020861015620002ba5750805b601f850160051c820191505b81811015620002db57828155600101620002c6565b5050505b505050565b81516001600160401b038111156200030057620003006200023f565b620003188162000311845462000255565b8462000291565b602080601f831160018114620003505760008415620003375750858301515b600019600386901b1c1916600185901b178555620002db565b600085815260208120601f198616915b82811015620003815788860151825594840194600190910190840162000360565b5085821015620003a05787850151600019600388901b60f8161c191681555b5050505050600190811b01905550565b80820180821115620003d257634e487b7160e01b600052601160045260246000fd5b92915050565b61072080620003e86000396000f3fe608060405234801561001057600080fd5b50600436106100935760003560e01c8063313ce56711610066578063313ce567146100fe57806370a082311461010d57806395d89b4114610136578063a9059cbb1461013e578063dd62ed3e1461015157600080fd5b806306fdde0314610098578063095ea7b3146100b657806318160ddd146100d957806323b872dd146100eb575b600080fd5b6100a061018a565b6040516100ad919061056a565b60405180910390f35b6100c96100c43660046105d4565b61021c565b60405190151581526020016100ad565b6002545b6040519081526020016100ad565b6100c96100f93660046105fe565b610236565b604051601281526020016100ad565b6100dd61011b36600461063a565b6001600160a01b031660009081526020819052604090205490565b6100a061025a565b6100c961014c3660046105d4565b610269565b6100dd61015f36600461065c565b6001600160a01b03918216600090815260016020908152604080832093909416825291909152205490565b6060600380546101999061068f565b80601f01602080910402602001604051908101604052809291908181526020018280546101c59061068f565b80156102125780601f106101e757610100808354040283529160200191610212565b820191906000526020600020905b8154815290600101906020018083116101f557829003601f168201915b5050505050905090565b60003361022a818585610277565b60019150505b92915050565b600033610244858285610289565b61024f85858561030c565b506001949350505050565b6060600480546101999061068f565b60003361022a81858561030c565b610284838383600161036b565b505050565b6001600160a01b03838116600090815260016020908152604080832093861683529290522054600019811461030657818110156102f757604051637dc7a0d960e11b81526001600160a01b038416600482015260248101829052604481018390526064015b60405180910390fd5b6103068484848403600061036b565b50505050565b6001600160a01b03831661033657604051634b637e8f60e11b8152600060048201526024016102ee565b6001600160a01b0382166103605760405163ec442f0560e01b8152600060048201526024016102ee565b610284838383610440565b6001600160a01b0384166103955760405163e602df0560e01b8152600060048201526024016102ee565b6001600160a01b0383166103bf57604051634a1406b160e11b8152600060048201526024016102ee565b6001600160a01b038085166000908152600160209081526040808320938716835292905220829055801561030657826001600160a01b0316846001600160a01b03167f8c5be1e5ebec7d5bd14f71427d1e84f3dd0314c0f7b2291e5b200ac8c7c3b9258460405161043291815260200190565b60405180910390a350505050565b6001600160a01b03831661046b57806002600082825461046091906106c9565b909155506104dd9050565b6001600160a01b038316600090815260208190526040902054818110156104be5760405163391434e360e21b81526001600160a01b038516600482015260248101829052604481018390526064016102ee565b6001600160a01b03841660009081526020819052604090209082900390555b6001600160a01b0382166104f957600280548290039055610518565b6001600160a01b03821660009081526020819052604090208054820190555b816001600160a01b0316836001600160a01b03167fddf252ad1be2c89b69c2b068fc378daa952ba7f163c4a11628f55a4df523b3ef8360405161055d91815260200190565b60405180910390a3505050565b600060208083528351808285015260005b818110156105975785810183015185820160400152820161057b565b506000604082860101526040601f19601f8301168501019250505092915050565b80356001600160a01b03811681146105cf57600080fd5b919050565b600080604083850312156105e757600080fd5b6105f0836105b8565b946020939093013593505050565b60008060006060848603121561061357600080fd5b61061c846105b8565b925061062a602085016105b8565b9150604084013590509250925092565b60006020828403121561064c57600080fd5b610655826105b8565b9392505050565b6000806040838503121561066f57600080fd5b610678836105b8565b9150610686602084016105b8565b90509250929050565b600181811c908216806106a357607f821691505b6020821081036106c357634e487b7160e01b600052602260045260246000fd5b50919050565b8082018082111561023057634e487b7160e01b600052601160045260246000fdfea26469706673582212202874108a040d898ee74f479944b6d57629de6ff836cda984e37769ec157904a564736f6c634300081400330000000000000000000000000000000000000000000000000000000000000190",
        "nonce": "0xb9",
        "accessList": []
      },
      "additionalContracts": [],
      "isFixedGasLimit": false
    },
    {
      "hash": "0x7f4adccf5ee1f9f7f707a4d3e43f328a3ec119c6a914029668df7fc9b8ec5722",
      "transactionType": "CALL",
      "contractName": "ZombieToken",
      "contractAddress": "0x831a9Ffd785503c87579169E569C4eB68bDa67E9",
      "function": "transfer(address,uint256):(bool)",
      "arguments": [
        "0x84a4390Fbb115262458d1ee979e0Ee0d3ced9D64",
        "100"
      ],
      "transaction": {
        "type": "0x02",
        "from": "0xfa9e6f9049ff9874fa6c1ea72c9e96285f2aee3a",
        "to": "0x831a9ffd785503c87579169e569c4eb68bda67e9",
        "gas": "0x11630",
        "value": "0x0",
        "data": "0xa9059cbb00000000000000000000000084a4390fbb115262458d1ee979e0ee0d3ced9d640000000000000000000000000000000000000000000000000000000000000064",
        "nonce": "0xba",
        "accessList": []
      },
      "additionalContracts": [],
      "isFixedGasLimit": false
    },
    {
      "hash": "0x559b3d84140163c056f7c424f13a75ecfa4a75ce83e3fb8de0f45b2b707d633f",
      "transactionType": "CALL",
      "contractName": "ZombieToken",
      "contractAddress": "0x831a9Ffd785503c87579169E569C4eB68bDa67E9",
      "function": "approve(address,uint256):(bool)",
      "arguments": [
        "0x84a4390Fbb115262458d1ee979e0Ee0d3ced9D64",
        "300"
      ],
      "transaction": {
        "type": "0x02",
        "from": "0xfa9e6f9049ff9874fa6c1ea72c9e96285f2aee3a",
        "to": "0x831a9ffd785503c87579169e569c4eb68bda67e9",
        "gas": "0x108a2",
        "value": "0x0",
        "data": "0x095ea7b300000000000000000000000084a4390fbb115262458d1ee979e0ee0d3ced9d64000000000000000000000000000000000000000000000000000000000000012c",
        "nonce": "0xbb",
        "accessList": []
      },
      "additionalContracts": [],
      "isFixedGasLimit": false
    },
    {
      "hash": "0x40ddf5d754d5855200a6c7e602ad01165a54cbbddf392fa1d91efb7acb224200",
      "transactionType": "CALL",
      "contractName": null,
      "contractAddress": "0x84a4390Fbb115262458d1ee979e0Ee0d3ced9D64",
      "function": null,
      "arguments": null,
      "transaction": {
        "type": "0x02",
        "from": "0xfa9e6f9049ff9874fa6c1ea72c9e96285f2aee3a",
        "to": "0x84a4390fbb115262458d1ee979e0ee0d3ced9d64",
        "gas": "0x8601",
        "value": "0x0",
        "data": "0xd21220a7",
        "nonce": "0xbc",
        "accessList": []
      },
      "additionalContracts": [],
      "isFixedGasLimit": false
    },
    {
      "hash": "0x68e1a9b43d097c7ed4328f929071467e8f0dd71210874fdfa58ddba53c262bfa",
      "transactionType": "CALL",
      "contractName": null,
      "contractAddress": "0x84a4390Fbb115262458d1ee979e0Ee0d3ced9D64",
      "function": null,
      "arguments": null,
      "transaction": {
        "type": "0x02",
        "from": "0xfa9e6f9049ff9874fa6c1ea72c9e96285f2aee3a",
        "to": "0x84a4390fbb115262458d1ee979e0ee0d3ced9d64",
        "gas": "0x7e72",
        "value": "0x0",
        "data": "0x25be124e",
        "nonce": "0xbd",
        "accessList": []
      },
      "additionalContracts": [],
      "isFixedGasLimit": false
    },
    {
      "hash": "0x6af5489348496f0f962f8c07429c569726c049fe8df110293c715100188c17ff",
      "transactionType": "CALL",
      "contractName": null,
      "contractAddress": "0x84a4390Fbb115262458d1ee979e0Ee0d3ced9D64",
      "function": null,
      "arguments": null,
      "transaction": {
        "type": "0x02",
        "from": "0xfa9e6f9049ff9874fa6c1ea72c9e96285f2aee3a",
        "to": "0x84a4390fbb115262458d1ee979e0ee0d3ced9d64",
        "gas": "0x18605",
        "value": "0x0",
        "data": "0xdf791e50000000000000000000000000831a9ffd785503c87579169e569c4eb68bda67e9000000000000000000000000f399e6fe1cc52f3763b233342a5747a39d95cb000000000000000000000000000000000000000000000000000000000000000064",
        "nonce": "0xbe",
        "accessList": []
      },
      "additionalContracts": [],
      "isFixedGasLimit": false
    },
    {
      "hash": "0xdb55282bcfd9e31c64b00cf70e8c624fc5a4375d125a4e4556e5cbe775c882e6",
      "transactionType": "CALL",
      "contractName": null,
      "contractAddress": "0x84a4390Fbb115262458d1ee979e0Ee0d3ced9D64",
      "function": null,
      "arguments": null,
      "transaction": {
        "type": "0x02",
        "from": "0xfa9e6f9049ff9874fa6c1ea72c9e96285f2aee3a",
        "to": "0x84a4390fbb115262458d1ee979e0ee0d3ced9d64",
        "gas": "0x18612",
        "value": "0x0",
        "data": "0xdf791e50000000000000000000000000831a9ffd785503c87579169e569c4eb68bda67e9000000000000000000000000679cc8867604fea28c97bb360784ad4e7874e7b000000000000000000000000000000000000000000000000000000000000000c8",
        "nonce": "0xbf",
        "accessList": []
      },
      "additionalContracts": [],
      "isFixedGasLimit": false
    },
    {
      "hash": "0x94071709c3260b18d6599eb728baaffb30883552273e6a6456d51aa2f7e1e24d",
      "transactionType": "CALL",
      "contractName": null,
      "contractAddress": "0x84a4390Fbb115262458d1ee979e0Ee0d3ced9D64",
      "function": null,
      "arguments": null,
      "transaction": {
        "type": "0x02",
        "from": "0xfa9e6f9049ff9874fa6c1ea72c9e96285f2aee3a",
        "to": "0x84a4390fbb115262458d1ee979e0ee0d3ced9d64",
        "gas": "0x95d0",
        "value": "0x0",
        "data": "0xf7888aec000000000000000000000000f399e6fe1cc52f3763b233342a5747a39d95cb0000000000000000000000000084a4390fbb115262458d1ee979e0ee0d3ced9d64",
        "nonce": "0xc0",
        "accessList": []
      },
      "additionalContracts": [],
      "isFixedGasLimit": false
    }
  ],
  "receipts": [
    {
      "transactionHash": "0x1cfa1b2024687f2bd7e4fcee570afee027a814a250eb6badb29f4a3e19e7ad6c",
      "transactionIndex": "0x1",
      "blockHash": "0x4c35a79d7719301077ffd977fbc7ea978c007bca01c35e9b5c97879dfda74d28",
      "blockNumber": "0x47350f",
      "from": "0xFA9e6f9049fF9874fa6C1Ea72C9E96285f2AEE3a",
      "to": "0x84a4390Fbb115262458d1ee979e0Ee0d3ced9D64",
      "cumulativeGasUsed": "0x2d3c6",
      "gasUsed": "0x14e96",
      "contractAddress": null,
      "logs": [
        {
          "address": "0xF399e6fe1cC52f3763B233342A5747A39d95Cb00",
          "topics": [
            "0x8c5be1e5ebec7d5bd14f71427d1e84f3dd0314c0f7b2291e5b200ac8c7c3b925",
            "0x000000000000000000000000fa9e6f9049ff9874fa6c1ea72c9e96285f2aee3a",
            "0x00000000000000000000000084a4390fbb115262458d1ee979e0ee0d3ced9d64"
          ],
          "data": "0x00000000000000000000000000000000000000000000000000000000000001f4",
          "blockHash": "0x4c35a79d7719301077ffd977fbc7ea978c007bca01c35e9b5c97879dfda74d28",
          "blockNumber": "0x47350f",
          "transactionHash": "0x1cfa1b2024687f2bd7e4fcee570afee027a814a250eb6badb29f4a3e19e7ad6c",
          "transactionIndex": "0x1",
          "logIndex": "0x2",
          "removed": false
        },
        {
          "address": "0x679Cc8867604FEA28c97BB360784AD4E7874e7b0",
          "topics": [
            "0x8c5be1e5ebec7d5bd14f71427d1e84f3dd0314c0f7b2291e5b200ac8c7c3b925",
            "0x000000000000000000000000fa9e6f9049ff9874fa6c1ea72c9e96285f2aee3a",
            "0x00000000000000000000000084a4390fbb115262458d1ee979e0ee0d3ced9d64"
          ],
          "data": "0x00000000000000000000000000000000000000000000000000000000000001f4",
          "blockHash": "0x4c35a79d7719301077ffd977fbc7ea978c007bca01c35e9b5c97879dfda74d28",
          "blockNumber": "0x47350f",
          "transactionHash": "0x1cfa1b2024687f2bd7e4fcee570afee027a814a250eb6badb29f4a3e19e7ad6c",
          "transactionIndex": "0x1",
          "logIndex": "0x3",
          "removed": false
        }
      ],
      "status": "0x1",
      "logsBloom": "0x00000000000000000000000000004000000000000000000000000000000000000000000000000000000000000000000000000000000000000000000000200000000000000000000000000000000000000000200000008000000005000010000000000000000000000000000000000000000000000000000000000000000000000001000000000000000100000000000000000000000020000000000000000000020000000000000000000000000000000000000000000000000000000000000008000000000000000000000000000000000000000000000000000000000000000010000000008000000000000000000000000000000000000000080000000000",
      "type": "0x2",
      "effectiveGasPrice": "0x119fe211b"
    },
    {
      "transactionHash": "0x81ee5eb4beed2b34d7865e236f5ca4f3e46f30b9a8f21cdb1c210da14a413ef8",
      "transactionIndex": "0x2",
      "blockHash": "0x4c35a79d7719301077ffd977fbc7ea978c007bca01c35e9b5c97879dfda74d28",
      "blockNumber": "0x47350f",
      "from": "0xFA9e6f9049fF9874fa6C1Ea72C9E96285f2AEE3a",
      "to": null,
      "cumulativeGasUsed": "0xb46bf",
      "gasUsed": "0x872f9",
      "contractAddress": "0x831a9Ffd785503c87579169E569C4eB68bDa67E9",
      "logs": [
        {
          "address": "0x831a9Ffd785503c87579169E569C4eB68bDa67E9",
          "topics": [
            "0xddf252ad1be2c89b69c2b068fc378daa952ba7f163c4a11628f55a4df523b3ef",
            "0x0000000000000000000000000000000000000000000000000000000000000000",
            "0x000000000000000000000000fa9e6f9049ff9874fa6c1ea72c9e96285f2aee3a"
          ],
          "data": "0x0000000000000000000000000000000000000000000000000000000000000190",
          "blockHash": "0x4c35a79d7719301077ffd977fbc7ea978c007bca01c35e9b5c97879dfda74d28",
          "blockNumber": "0x47350f",
          "transactionHash": "0x81ee5eb4beed2b34d7865e236f5ca4f3e46f30b9a8f21cdb1c210da14a413ef8",
          "transactionIndex": "0x2",
          "logIndex": "0x4",
          "removed": false
        }
      ],
      "status": "0x1",
      "logsBloom": "0x00000000000000000000000000004000004000000000000000000000000000000000000000000000000000000000000000000000000000000000000000000000000000000000000000000008000000000000000000008000000004000000000000020000020000000000000000000800000000000004000000000010000000000000000000000000000000000000000000000000000000000000000000000000000000000000000000000000000000000000000000000000000000000000000000000002000000000000000000000000000000000000000000000000000020000000000000000000000000000000000000000000000000000000000000000000",
      "type": "0x2",
      "effectiveGasPrice": "0x119fe211b"
    },
    {
      "transactionHash": "0x7f4adccf5ee1f9f7f707a4d3e43f328a3ec119c6a914029668df7fc9b8ec5722",
      "transactionIndex": "0x3",
      "blockHash": "0x4c35a79d7719301077ffd977fbc7ea978c007bca01c35e9b5c97879dfda74d28",
      "blockNumber": "0x47350f",
      "from": "0xFA9e6f9049fF9874fa6C1Ea72C9E96285f2AEE3a",
      "to": "0x831a9Ffd785503c87579169E569C4eB68bDa67E9",
      "cumulativeGasUsed": "0xc1027",
      "gasUsed": "0xc968",
      "contractAddress": null,
      "logs": [
        {
          "address": "0x831a9Ffd785503c87579169E569C4eB68bDa67E9",
          "topics": [
            "0xddf252ad1be2c89b69c2b068fc378daa952ba7f163c4a11628f55a4df523b3ef",
            "0x000000000000000000000000fa9e6f9049ff9874fa6c1ea72c9e96285f2aee3a",
            "0x00000000000000000000000084a4390fbb115262458d1ee979e0ee0d3ced9d64"
          ],
          "data": "0x0000000000000000000000000000000000000000000000000000000000000064",
          "blockHash": "0x4c35a79d7719301077ffd977fbc7ea978c007bca01c35e9b5c97879dfda74d28",
          "blockNumber": "0x47350f",
          "transactionHash": "0x7f4adccf5ee1f9f7f707a4d3e43f328a3ec119c6a914029668df7fc9b8ec5722",
          "transactionIndex": "0x3",
          "logIndex": "0x5",
          "removed": false
        }
      ],
      "status": "0x1",
      "logsBloom": "0x00000000000000000000000000004000004000000000000000000000000000000000000000000000000000000000000000000000000000000000000000000000000000000000000000000008000000000000000000008000000005000000000000020000000000000000000000000000000000000004000000000010000000000001000000000000000000000000000000000000000000000000000000000000000000000000000000000000000000000000000000000000000000000000000008000002000000000000000000000000000000000000000000000000000000000000000000000000000000000000000000000000000000000000000000000000",
      "type": "0x2",
      "effectiveGasPrice": "0x119fe211b"
    },
    {
      "transactionHash": "0x559b3d84140163c056f7c424f13a75ecfa4a75ce83e3fb8de0f45b2b707d633f",
      "transactionIndex": "0x4",
      "blockHash": "0x4c35a79d7719301077ffd977fbc7ea978c007bca01c35e9b5c97879dfda74d28",
      "blockNumber": "0x47350f",
      "from": "0xFA9e6f9049fF9874fa6C1Ea72C9E96285f2AEE3a",
      "to": "0x831a9Ffd785503c87579169E569C4eB68bDa67E9",
      "cumulativeGasUsed": "0xcc51a",
      "gasUsed": "0xb4f3",
      "contractAddress": null,
      "logs": [
        {
          "address": "0x831a9Ffd785503c87579169E569C4eB68bDa67E9",
          "topics": [
            "0x8c5be1e5ebec7d5bd14f71427d1e84f3dd0314c0f7b2291e5b200ac8c7c3b925",
            "0x000000000000000000000000fa9e6f9049ff9874fa6c1ea72c9e96285f2aee3a",
            "0x00000000000000000000000084a4390fbb115262458d1ee979e0ee0d3ced9d64"
          ],
          "data": "0x000000000000000000000000000000000000000000000000000000000000012c",
          "blockHash": "0x4c35a79d7719301077ffd977fbc7ea978c007bca01c35e9b5c97879dfda74d28",
          "blockNumber": "0x47350f",
          "transactionHash": "0x559b3d84140163c056f7c424f13a75ecfa4a75ce83e3fb8de0f45b2b707d633f",
          "transactionIndex": "0x4",
          "logIndex": "0x6",
          "removed": false
        }
      ],
      "status": "0x1",
      "logsBloom": "0x00000000000000000000000000004000004000000000000000000000000000000000000000000000000000000000000000000000000000000000000000200000000000000000000000000000000000000000000000008000000005000000000000020000000000000000000000000000000000000004000000000000000000000001000000000000000000000000000000000000000000000000000000000000020000000000000000000000000000000000000000000000000000000000000008000000000000000000000000000000000000000000000000000000000000000010000000000000000000000000000000000000000000000000000000000000",
      "type": "0x2",
      "effectiveGasPrice": "0x119fe211b"
    },
    {
      "transactionHash": "0x40ddf5d754d5855200a6c7e602ad01165a54cbbddf392fa1d91efb7acb224200",
      "transactionIndex": "0x5",
      "blockHash": "0x4c35a79d7719301077ffd977fbc7ea978c007bca01c35e9b5c97879dfda74d28",
      "blockNumber": "0x47350f",
      "from": "0xFA9e6f9049fF9874fa6C1Ea72C9E96285f2AEE3a",
      "to": "0x84a4390Fbb115262458d1ee979e0Ee0d3ced9D64",
      "cumulativeGasUsed": "0xd20bb",
      "gasUsed": "0x5ba1",
      "contractAddress": null,
      "logs": [],
      "status": "0x1",
      "logsBloom": "0x00000000000000000000000000000000000000000000000000000000000000000000000000000000000000000000000000000000000000000000000000000000000000000000000000000000000000000000000000000000000000000000000000000000000000000000000000000000000000000000000000000000000000000000000000000000000000000000000000000000000000000000000000000000000000000000000000000000000000000000000000000000000000000000000000000000000000000000000000000000000000000000000000000000000000000000000000000000000000000000000000000000000000000000000000000000",
      "type": "0x2",
      "effectiveGasPrice": "0x119fe211b"
    },
    {
      "transactionHash": "0x68e1a9b43d097c7ed4328f929071467e8f0dd71210874fdfa58ddba53c262bfa",
      "transactionIndex": "0x6",
      "blockHash": "0x4c35a79d7719301077ffd977fbc7ea978c007bca01c35e9b5c97879dfda74d28",
      "blockNumber": "0x47350f",
      "from": "0xFA9e6f9049fF9874fa6C1Ea72C9E96285f2AEE3a",
      "to": "0x84a4390Fbb115262458d1ee979e0Ee0d3ced9D64",
      "cumulativeGasUsed": "0xd7c47",
      "gasUsed": "0x5b8c",
      "contractAddress": null,
      "logs": [],
      "status": "0x1",
      "logsBloom": "0x00000000000000000000000000000000000000000000000000000000000000000000000000000000000000000000000000000000000000000000000000000000000000000000000000000000000000000000000000000000000000000000000000000000000000000000000000000000000000000000000000000000000000000000000000000000000000000000000000000000000000000000000000000000000000000000000000000000000000000000000000000000000000000000000000000000000000000000000000000000000000000000000000000000000000000000000000000000000000000000000000000000000000000000000000000000",
      "type": "0x2",
      "effectiveGasPrice": "0x119fe211b"
    },
    {
      "transactionHash": "0x6af5489348496f0f962f8c07429c569726c049fe8df110293c715100188c17ff",
      "transactionIndex": "0x7",
      "blockHash": "0x4c35a79d7719301077ffd977fbc7ea978c007bca01c35e9b5c97879dfda74d28",
      "blockNumber": "0x47350f",
      "from": "0xFA9e6f9049fF9874fa6C1Ea72C9E96285f2AEE3a",
      "to": "0x84a4390Fbb115262458d1ee979e0Ee0d3ced9D64",
      "cumulativeGasUsed": "0xe96a6",
      "gasUsed": "0x11a5f",
      "contractAddress": null,
      "logs": [
        {
          "address": "0x831a9Ffd785503c87579169E569C4eB68bDa67E9",
          "topics": [
            "0xddf252ad1be2c89b69c2b068fc378daa952ba7f163c4a11628f55a4df523b3ef",
            "0x000000000000000000000000fa9e6f9049ff9874fa6c1ea72c9e96285f2aee3a",
            "0x00000000000000000000000084a4390fbb115262458d1ee979e0ee0d3ced9d64"
          ],
          "data": "0x0000000000000000000000000000000000000000000000000000000000000064",
          "blockHash": "0x4c35a79d7719301077ffd977fbc7ea978c007bca01c35e9b5c97879dfda74d28",
          "blockNumber": "0x47350f",
          "transactionHash": "0x6af5489348496f0f962f8c07429c569726c049fe8df110293c715100188c17ff",
          "transactionIndex": "0x7",
          "logIndex": "0x7",
          "removed": false
        },
        {
          "address": "0xF399e6fe1cC52f3763B233342A5747A39d95Cb00",
          "topics": [
            "0x8c5be1e5ebec7d5bd14f71427d1e84f3dd0314c0f7b2291e5b200ac8c7c3b925",
            "0x00000000000000000000000084a4390fbb115262458d1ee979e0ee0d3ced9d64",
            "0x00000000000000000000000084a4390fbb115262458d1ee979e0ee0d3ced9d64"
          ],
          "data": "0x0000000000000000000000000000000000000000000000000000000000000064",
          "blockHash": "0x4c35a79d7719301077ffd977fbc7ea978c007bca01c35e9b5c97879dfda74d28",
          "blockNumber": "0x47350f",
          "transactionHash": "0x6af5489348496f0f962f8c07429c569726c049fe8df110293c715100188c17ff",
          "transactionIndex": "0x7",
          "logIndex": "0x8",
          "removed": false
        },
        {
          "address": "0xF399e6fe1cC52f3763B233342A5747A39d95Cb00",
          "topics": [
            "0x8c5be1e5ebec7d5bd14f71427d1e84f3dd0314c0f7b2291e5b200ac8c7c3b925",
            "0x00000000000000000000000084a4390fbb115262458d1ee979e0ee0d3ced9d64",
            "0x00000000000000000000000084a4390fbb115262458d1ee979e0ee0d3ced9d64"
          ],
          "data": "0x0000000000000000000000000000000000000000000000000000000000000000",
          "blockHash": "0x4c35a79d7719301077ffd977fbc7ea978c007bca01c35e9b5c97879dfda74d28",
          "blockNumber": "0x47350f",
          "transactionHash": "0x6af5489348496f0f962f8c07429c569726c049fe8df110293c715100188c17ff",
          "transactionIndex": "0x7",
          "logIndex": "0x9",
          "removed": false
        },
        {
          "address": "0xF399e6fe1cC52f3763B233342A5747A39d95Cb00",
          "topics": [
            "0xddf252ad1be2c89b69c2b068fc378daa952ba7f163c4a11628f55a4df523b3ef",
            "0x00000000000000000000000084a4390fbb115262458d1ee979e0ee0d3ced9d64",
            "0x000000000000000000000000fa9e6f9049ff9874fa6c1ea72c9e96285f2aee3a"
          ],
          "data": "0x0000000000000000000000000000000000000000000000000000000000000064",
          "blockHash": "0x4c35a79d7719301077ffd977fbc7ea978c007bca01c35e9b5c97879dfda74d28",
          "blockNumber": "0x47350f",
          "transactionHash": "0x6af5489348496f0f962f8c07429c569726c049fe8df110293c715100188c17ff",
          "transactionIndex": "0x7",
          "logIndex": "0xa",
          "removed": false
        }
      ],
      "status": "0x1",
      "logsBloom": "0x00000000000000000000000000004000004000000000000000000000000000000000000000000000000000000000000000000000000000000000000000200000000000000000000000000008000000000000000000008000000005000010000000020000000000000000000000000000000000000004000000000010000000000001000000000000000000000000000000000000000000000000000000000000020000000000000000000000000000000000000000000000000000000000000008000002000000000000000000000000000000000000000000000000000000000010000000008000000000000000000000000000000000000000080000000000",
      "type": "0x2",
      "effectiveGasPrice": "0x119fe211b"
    },
    {
      "transactionHash": "0xdb55282bcfd9e31c64b00cf70e8c624fc5a4375d125a4e4556e5cbe775c882e6",
      "transactionIndex": "0x8",
      "blockHash": "0x4c35a79d7719301077ffd977fbc7ea978c007bca01c35e9b5c97879dfda74d28",
      "blockNumber": "0x47350f",
      "from": "0xFA9e6f9049fF9874fa6C1Ea72C9E96285f2AEE3a",
      "to": "0x84a4390Fbb115262458d1ee979e0Ee0d3ced9D64",
      "cumulativeGasUsed": "0xfb10e",
      "gasUsed": "0x11a68",
      "contractAddress": null,
      "logs": [
        {
          "address": "0x831a9Ffd785503c87579169E569C4eB68bDa67E9",
          "topics": [
            "0xddf252ad1be2c89b69c2b068fc378daa952ba7f163c4a11628f55a4df523b3ef",
            "0x000000000000000000000000fa9e6f9049ff9874fa6c1ea72c9e96285f2aee3a",
            "0x00000000000000000000000084a4390fbb115262458d1ee979e0ee0d3ced9d64"
          ],
          "data": "0x00000000000000000000000000000000000000000000000000000000000000c8",
          "blockHash": "0x4c35a79d7719301077ffd977fbc7ea978c007bca01c35e9b5c97879dfda74d28",
          "blockNumber": "0x47350f",
          "transactionHash": "0xdb55282bcfd9e31c64b00cf70e8c624fc5a4375d125a4e4556e5cbe775c882e6",
          "transactionIndex": "0x8",
          "logIndex": "0xb",
          "removed": false
        },
        {
          "address": "0x679Cc8867604FEA28c97BB360784AD4E7874e7b0",
          "topics": [
            "0x8c5be1e5ebec7d5bd14f71427d1e84f3dd0314c0f7b2291e5b200ac8c7c3b925",
            "0x00000000000000000000000084a4390fbb115262458d1ee979e0ee0d3ced9d64",
            "0x00000000000000000000000084a4390fbb115262458d1ee979e0ee0d3ced9d64"
          ],
          "data": "0x0000000000000000000000000000000000000000000000000000000000000064",
          "blockHash": "0x4c35a79d7719301077ffd977fbc7ea978c007bca01c35e9b5c97879dfda74d28",
          "blockNumber": "0x47350f",
          "transactionHash": "0xdb55282bcfd9e31c64b00cf70e8c624fc5a4375d125a4e4556e5cbe775c882e6",
          "transactionIndex": "0x8",
          "logIndex": "0xc",
          "removed": false
        },
        {
          "address": "0x679Cc8867604FEA28c97BB360784AD4E7874e7b0",
          "topics": [
            "0x8c5be1e5ebec7d5bd14f71427d1e84f3dd0314c0f7b2291e5b200ac8c7c3b925",
            "0x00000000000000000000000084a4390fbb115262458d1ee979e0ee0d3ced9d64",
            "0x00000000000000000000000084a4390fbb115262458d1ee979e0ee0d3ced9d64"
          ],
          "data": "0x0000000000000000000000000000000000000000000000000000000000000000",
          "blockHash": "0x4c35a79d7719301077ffd977fbc7ea978c007bca01c35e9b5c97879dfda74d28",
          "blockNumber": "0x47350f",
          "transactionHash": "0xdb55282bcfd9e31c64b00cf70e8c624fc5a4375d125a4e4556e5cbe775c882e6",
          "transactionIndex": "0x8",
          "logIndex": "0xd",
          "removed": false
        },
        {
          "address": "0x679Cc8867604FEA28c97BB360784AD4E7874e7b0",
          "topics": [
            "0xddf252ad1be2c89b69c2b068fc378daa952ba7f163c4a11628f55a4df523b3ef",
            "0x00000000000000000000000084a4390fbb115262458d1ee979e0ee0d3ced9d64",
            "0x000000000000000000000000fa9e6f9049ff9874fa6c1ea72c9e96285f2aee3a"
          ],
          "data": "0x0000000000000000000000000000000000000000000000000000000000000064",
          "blockHash": "0x4c35a79d7719301077ffd977fbc7ea978c007bca01c35e9b5c97879dfda74d28",
          "blockNumber": "0x47350f",
          "transactionHash": "0xdb55282bcfd9e31c64b00cf70e8c624fc5a4375d125a4e4556e5cbe775c882e6",
          "transactionIndex": "0x8",
          "logIndex": "0xe",
          "removed": false
        }
      ],
      "status": "0x1",
      "logsBloom": "0x00000000000000000000000000004000004000000000000000000000000000000000000000000000000000000000000000000000000000000000000000200000000000000000000000000008000000000000200000008000000005000000000000020000000000000000000000000000000000000004000000000010000000000001000000000000000100000000000000000000000020000000000000000000020000000000000000000000000000000000000000000000000000000000000008000002000000000000000000000000000000000000000000000000000000000010000000000000000000000000000000000000000000000000000000000000",
      "type": "0x2",
      "effectiveGasPrice": "0x119fe211b"
    },
    {
      "transactionHash": "0x94071709c3260b18d6599eb728baaffb30883552273e6a6456d51aa2f7e1e24d",
      "transactionIndex": "0x9",
      "blockHash": "0x4c35a79d7719301077ffd977fbc7ea978c007bca01c35e9b5c97879dfda74d28",
      "blockNumber": "0x47350f",
      "from": "0xFA9e6f9049fF9874fa6C1Ea72C9E96285f2AEE3a",
      "to": "0x84a4390Fbb115262458d1ee979e0Ee0d3ced9D64",
      "cumulativeGasUsed": "0x101d85",
      "gasUsed": "0x6c77",
      "contractAddress": null,
      "logs": [],
      "status": "0x1",
      "logsBloom": "0x00000000000000000000000000000000000000000000000000000000000000000000000000000000000000000000000000000000000000000000000000000000000000000000000000000000000000000000000000000000000000000000000000000000000000000000000000000000000000000000000000000000000000000000000000000000000000000000000000000000000000000000000000000000000000000000000000000000000000000000000000000000000000000000000000000000000000000000000000000000000000000000000000000000000000000000000000000000000000000000000000000000000000000000000000000000",
      "type": "0x2",
      "effectiveGasPrice": "0x119fe211b"
    }
  ],
  "libraries": [],
  "pending": [],
  "returns": {},
  "timestamp": 1699625570,
  "chain": 11155111,
  "multi": false,
  "commit": "82444cc"
}